:020000040000fa
:080000000002040000000000f2
:020000040000fa
:10040000afc921000e7f22000e018800000000000d
:100410000c000700201f250001002000110007002c
:10042000000020000000e000020032000000020096
:1004300000000000423d0200000000000040da0021
:100440000000fe004440a900200d20000000e00054
:100450000300320000002000a00188004440a800f2
:100460000000060091018800800078000000eb0089
:1004700015003700e280400032a0b4009101ba00bc
:10048000e280400032a0b4009102ba00e280400055
:1004900032a0b4000002eb00472bde00f507b200eb
:1004a000602ce10004003a000059eb008301e900f0
:1004b000fdff3e00040037006128e100010032002a
:1004c0000082eb00040007001101ba000200e00006
:1004d000e8ff3a00000006003159ba008301e90044
:1004e0000c0032002159ba008301e90008003200f3
:1004f0000400e00003003a00e280400032a0b400b3
:10050000f5ff370011d9ba008301e900faff3a007c
:100510008100e800e180400032a0b4000000060045
:1005200000000000000000000000000000000000cb
:1005300000000000000000000000000000000000bb
:1005400000000000000000000000000000000000ab
:10055000000000000000000000000000000000009b
:1005600000000000000000000040da000000fe0073
:10057000800078001104b100030035009101b10042
:1005800001003c000050a000000006008000780040
:100590001106b100030035009101b10001003c00db
:1005a0000050a10000000600020ab900001bb900bb
:1005b0000200b800810042008100430000000600f4
:1005c0004f89de0082017800b60237002800fa0069
:1005d000889fbe008a9fbe008c9fbe0007067800e1
:1005e000878669000c003b000304780087047800cc
:1005f00008f0a10009f0a100840f5000858f580079
:10060000860f5900890f5c00030033000cf0a20034
:1006100001003a000cf0a100d90207006400e100db
:100620005f003200780147006408e1006100320099
:100630006c014700748557003200be001201be00f5
:100640003a04be001a05be001e039000be0a9000c8
:100650008503530006003d000004fd008104fd00f9
:100660000205fd008305fd008703ea00050378000d
:100670000df8a3000400320060041400e0841c00a4
:1006800060051d00e0851d006022b8007d0320008c
:100690000d38e1008006eb000b0039004433dd002b
:1006a000f300b200830173003900370084827200c6
:1006b0000d027800e10664008b85d1000a85d30025
:1006c0008984d3000884d3008703e900f7ff3b0047
:1006d00008004000898048000a0149008b814900d8
:1006e00004003b0060001000e08018006001190069
:1006f000e08119000358a300090032008d827200c6
:1007000084827200610260008301d1000281d30003
:100710008180d3000080d3000603e8001b0037006f
:100720000348a30017003a000600e0001700340059
:100730000603e9000d00a300000048008180480086
:1007400002014900838149000348a3000f003a00d9
:100750000600e000090034000603e9000000400044
:1007600081804800020149008381490001003a006c
:100770000003eb000348a300f5ff32006022b8003d
:1007800002003700848272006182660095020700d1
:1007900003f0a1000cf0a70003f0a0008c023700ca
:1007a000640147006408e10002003a000df8a3006c
:1007b00084023a003200be001201be0084023700fb
:1007c0002800fa00889fbe008a9fbe008c9fbe0052
:1007d00003866b006a0207006400e10044003200f7
:1007e0006408e1004a0032006100e1004600320086
:1007f0006108e10049003200ec0647006000b800e3
:100800003d02be003d03be00f48657006011b800f3
:100810003d04be003d05be007d0320000b003700f7
:100820000000a0008d06e90013003200040242001f
:1008300085824a0006034b0087834b00000040007e
:10084000818048000201490083814900080252006a
:1008500089825a000a035b008b835b00f0ff3b0038
:100860000802420089824a000a034b008b834b0036
:100870008d06e900edff3a008482720086827200e4
:10088000f707b200878272000100320015002000d5
:100890001e0490003e0b900006035400e63fb0009b
:1008a0000368a300070032000000a7000500a000b5
:1008b0008301d1000281d3008180d3000080d30066
:1008c0000603e8008301d1000281d3008180d300b8
:1008d0000080d3000002eb000482d2004102070036
:1008e00003f0a1000cf0a70003f0a00038023700cd
:1008f000640247006408e100320232003400be00a6
:100900003401be00f6ff37006108e1002d0232001d
:100910006011b8006000b800f1ff370003ff270046
:1009200002002000fbff370007f0a20027ff37007e
:1009300014002000570237002800fa00889fbe00ec
:100940008a9fbe008c9fbe0003866b000c020700ce
:100950000028a30064003a000128a30067003a00c1
:100960000008a30062003a000108a30065003a00f5
:100970001e009000be08900081064000ed3fb100cf
:10098000f4805700ee019000111ab8008e09900013
:10099000311bb8009e099000311cb800511db800f1
:1009a000f485570046000700fe0190003a0007005a
:1009b0008b85e8003e0007008e099000400007008c
:1009c000ee019000340007008b85e8003800070036
:1009d0008e099000400007009e0990001b18b80087
:1009e000890440000a854800fe0190003400070099
:1009f0008b85e80038000700ee019000300007000a
:100a00008e0990001b18b800890440000a85480030
:100a10000a98a30008003a000402420085824a00b6
:100a200006034b0087834b0008044c0089844c006c
:100a30000a054d008d06e90084827200850273006c
:100a40004c3add00850272000100320015002000e2
:100a5000443ade001400b2004538de00cb45dd002c
:100a60000b007000c540de00cb4ddd008b807000b8
:100a70004549de00cb55dd000b017100c551de009c
:100a80000d037800d701070003f0a1000cf0a700c8
:100a900003f0a000ce0137001b18b800850240000b
:100aa00006834800e0834b0060044c0007003700d9
:100ab0001b18b8000603400087834800faff370080
:100ac0001b18b8008703400008844800e0844c00ed
:100ad00060054d00000006001b18b8000804400027
:100ae00089844800faff37000108a300b5013a00e5
:100af0005800be005801be00e3ff37000008a30005
:100b0000b0013a0009047800f9ff37000002eb0059
:100b1000e00137001400fa00889fbe008a9fbe00e3
:100b20008c9fbe000004be000205be0068004700a6
:100b30000a90be000890be00830207000078a30060
:100b40003d003a006100e1003c0032000bf8a300d8
:100b50003d003a006400e100380032006c034700b9
:100b60001e009000f03fb1003602be001603be002a
:100b70000008a300040032000402420085824a00fb
:100b800006034b0087834b00100798008e1f7800e8
:100b90006000b8006011b8005c0020006d0120000a
:100ba0006e002000020037008d86e900fc00200066
:100bb0000402420085824a0006034b0087834b00f3
:100bc00000044000818448000205490083854900f3
:100bd0006060e1001d60ad000804520089845a0085
:100be0000a055b008b855b00030039001e60ad00c9
:100bf0000802be000a03be000c06e900ecff3b0041
:100c00000e87e900e8ff3b004f07780061026000b3
:100c1000840278008301d1000281d3008180d30057
:100c20000080d3001e03900041b3de00f63fb00009
:100c30006c010700660137000b30a0000800be0001
:100c40000a01be006201370012022000c2cb8800f8
:100c50005c0137000000fa00889fbe008a9fbe003a
:100c60008c9fbe000404be000605be005d020700a6
:100c7000040678000c78a30020003a000800fd006c
:100c80008900fd000a01fd008b01fd0055020700ef
:100c9000840678000d78a30018003a000d0666005f
:100ca0006460e100190032006160e1001700320069
:100cb0000002be000203be000a01be000800be0022
:100cc00007047800befe070003f0a10057020700ea
:100cd00008f0a6000600370003f0a20097002400e9
:100ce000b61f22004544250084d1220037fe0700ac
:100cf0000bf0a70003f0a200350137001802200016
:100d0000c8cb88000330a000310137001802200052
:100d1000c8cb88002b0137001400fa00889fbe0062
:100d20008a9fbe008c9fbe000004be000205be006c
:100d3000680047000a90be000890be00020207004b
:100d40000070a7000bf0a1000bf8a30016003a00fa
:100d50009e0290003043200080825200b0fe2f009f
:100d60000028e1000d003c00b0fc2f000028e1004d
:100d70000d0034001e0990008e0890007e00900047
:100d80000501b0000201d1008180d3000080d300b2
:100d90008502e800fbff3a000d0137000100280042
:100da000000020000a0137006000b8000801370089
:100db000889fbe008a9fbe00010578000100e00008
:100dc0000400350008003c000000e0002000320074
:100dd0000500370060001000e080180002003b00b2
:100de00001f02c001a0037000004be006011b800aa
:100df0006b0920000982cf00020039000882cf0071
:100e00000441b000694252000e00320008003b006d
:100e100082817100610164008904d1000884d300db
:100e20008b05e8000442e800f9ff3a0005003700ae
:100e30000804440089844c008b05e9000442e90061
:100e4000fbff3a00af0207000af0a70001f0a00084
:100e50004f05be004f04be000000060003f0a200d4
:100e6000889fbe008a9fbe008c1f7800cb020700bf
:100e7000d20233006450e1004f0032006420e100f0
:100e80005200320003826c0007003b000905d000cd
:100e90000306d000820f54000c065d0002003900ea
:100ea000020032008901780003067800858255002f
:100eb00004003d000003fd008103fd008502ea00ff
:100ec0008b854200840f720002003b00600010001e
:100ed000e08018006011b8000005eb007a28e100fe
:100ee0000a00390006007800c75ddd00f707b20090
:100ef000878075002d003700828171000a0178001b
:100f0000610560008180d1000080d3008502e90086
:100f1000f9ff3b00060440008784480002003b00c4
:100f200060041400e0841c000988a300070032005c
:100f30008a81710082817100610164008904d1009d
:100f40000884d3008b05e800170037000978a30058
:100f500013003a000b00e000130034008b05e90099
:100f60000804440089844c000a4474000978a300f2
:100f70000d003a000b00e000070034008b05e9008b
:100f80000804440089844c0001003a000b00200052
:100f90000978a300f7ff32000001eb0002003700e0
:100fa000828171000a017800560207000cf0a70048
:100fb00001f0a0008a0237006420e10002003a003c
:100fc000838f6c008a0233000801be000200be005d
:100fd0008302370081037800880207000001be0009
:100fe0006000b8000478a30013003a006220e1001a
:100ff00015003e000d0039008301d1000281d300ad
:101000008180d3008301d1000281d3008180d3008d
:101010008301d1000281d3008180d3000538b00064
:10102000c42add00f300b2008381720007f0a7003c
:1010300003f0a00000000600f3ff2700f2ff2f00de
:101040006110b900fbff370003ff2700f7ff3700ef
:101050008f1fd1007e0207008f87e9000000e000ab
:10106000000006006022b800060220000000d00048
:101070008180d2000482d2008582d2000000a000cc
:101080000202520083825a00030031000202420031
:1010900083824a000000a1000603e900f3ff3a0042
:1010a00000000600889fbe00830478000300e00073
:1010b0002c00350003003c00008270000402710027
:1010c0002600320036432000c50020008383cf0075
:1010d0000a0039000541b1008283cf0007003900c2
:1010e0000541b1008183cf00040039000541b10002
:1010f0008083cf00010039000541b10085c3530052
:101100006022b800120032000a003b0084827200a4
:10111000610260008301d1000281d3008180d3008d
:101120000080d3000603e8008743e800f7ff3a0099
:10113000070037000000400081804800020149009c
:10114000838149000603e9008743e900f9ff3a007b
:101150002400070009f0a70003f0a0004f04be0020
:101160000000060060001000e08018006001190017
:10117000e0811900d3ff3b00033e2c00f7ff37004e
:10118000680447000294be000094be00fc044700bf
:101190008694be008494be0009007800ea0007002f
:1011a00008007800e800070099007800814f70007f
:1011b0000b003b000800be004e0207004f00b100cc
:1011c00003003700f3ff2700f2ff2f006110b90082
:1011d0004f06be004f05be004f04be000080fa005f
:1011e00000000600180020005700200008045300eb
:1011f0000d003d000600200097fc2f000740e10095
:101200001e00340084827200610260008301d100fc
:101210000281d3008180d3000080d3000804e8005d
:10122000f8ff3a00470020006104600005047400e4
:10123000040464000d00320061004000e0804800ba
:1012400060014900e081490003b8a50007003200b1
:101250000603e8006538e10004003a008301d1008c
:101260000281d3008180d3000080d300f87f20006a
:101270000830e10003003500080378006000b80082
:101280006011b8004433dd00f300b2008301730045
:10129000000006000800fa00889fbe008a9fbe007a
:1012a0008c9fbe00040678000004be000205be004c
:1012b000cc0007006420e1009f003e009b0032004c
:1012c0006120e1009600320003f0a100171b24000a
:1012d00036582c0005a02100040020005cff070008
:1012e0000800be000a01be00070035009701240077
:1012f000b61f22004544250084d122000b020700be
:101300000004be000205be008006eb000c00a70032
:10131000cf1ede0003f0a1000bf0a10047fd23006b
:1013200006f3250095dc260034882c0082fd07009a
:101330006022b8000003eb0007fe23000c00a600ab
:1013400007ff2300a1fc0700fc0107000000a70025
:101350000d00a2009afc07000c00e00004003a0017
:1013600007fe2300060020006022b8006efd070083
:1013700003f0a200009fbe000297be009700240069
:10138000060022006022b8006bfd07000802be00c4
:101390000a03be008dfc0700809fbe00829fbe0036
:1013a0003e00be002e01be00f7f4230046542b0081
:1013b000152d2400a44628005ffd07004f03be0042
:1013c0004f02be0081fc07000004be000205be0003
:1013d00003f0a10067e42300e6092a00f567260070
:1013e000d4bc23001aff07000800be000a01be009b
:1013f000480035000002be000203be004efd07009b
:10140000009fbe000297be0087ce2300f60f280083
:101410003599260054f92d0047fd0700a7d62b006b
:1014200006422e0085c02d00c499240067fc0700e9
:101430003e02be002e03be003ffd070067de230014
:10144000c6232100a586260004432d005ffc07006b
:101450003e02be002e03be0037fd0700a7e52b00ad
:1014600056642e00d5b52400b40a2c0057fc0700a2
:101470003e02be002e03be002ffd070077ec2300c6
:1014800036de210045522a0034062f004ffc0700ab
:101490003e02be002e03be0027fd0700a7f22b0070
:1014a000061a200015a02100a4e1230047fc070034
:1014b0003e02be002e03be001ffd070017f82300ea
:1014c0001611210015112100040b21003ffc07001b
:1014d0003e02be002e03be0017fd070057fc2b0086
:1014e00056552500555525005455250037fc070055
:1014f0003e02be002e03be000ffd07000802be0024
:101500000a03be000cfd07000802be000a03be006d
:101510002efc07000d00a70003f0a2002cff3700ef
:101520000c00a60003ff230029ff3700f3ff27006c
:10153000f2ff2f006110b9000330a0001402200058
:10154000c4cb880022ff3700800078005002be0024
:101550005003be004439de00f700b200f37f2000e4
:1015600003016100090032000218e10016003a0090
:1015700085017200830173008381730000082000dd
:1015800015003a004000200013003700850172006a
:10159000830173008381730005003a0004a8be0034
:1015a00006a8be00100020000b0037000201e90071
:1015b0000402420085824a0006034b0087834b00e9
:1015c0000748a300f9ff32000740a00004a8be00ae
:1015d00006a8be002000200080009800920098001d
:1015e0000000060005ff27000582610007003200a9
:1015f0000428e10001003200240005000600070075
:1016000001003a004400050004080500020007003c
:10161000f9ff3a00140005006f826100810270003a
:101620008502710085027200000006000800fa00c1
:10163000889fbe008a9fbe008c9fbe000004be0033
:101640000205be0083067800e6ff07006420e10083
:10165000a3003e00a60032000006eb000bf0a10044
:1016600003ff2300020020006000b8000802be0053
:101670000a03be005d01070009003d0003ff2300cf
:10168000020020006000b8000802be000a03be008d
:101690004bfc07000004be000205be002c00200029
:1016a00013fd230042612200e1e9250060d52c00f2
:1016b0000802be000a03be004c0107001d003d00e9
:1016c000b3ff2300a2672b0081852e00a0ca24004f
:1016d0000802be000a03be00bcfb0700009fbe005c
:1016e0000297be0073fe230052cf2600010b2d008f
:1016f000509529000802be000a03be008efc0700b8
:1017000007ff2300060020006022b80086fc0700c7
:101710000802be000a03be00acfb07003e02be008a
:101720002e03be0026fc07000004be000205be001a
:101730000c06e8000800be000a01be0003f0a1008c
:1017400067e42300e6092a00f5672600d4bc2300dd
:101750003ffe07000800be000a01be004c00350035
:101760000802be000a03be0073fc0700009fbe0013
:101770000297be00e702240096c42000a5142e00a4
:1017800004712c0091fb07003e02be002e03be0038
:1017900069fc0700d7042400a6a02c00d520230054
:1017a000743d2a0089fb07003e02be002e03be00e6
:1017b00061fc07005705240026a12800b540200041
:1017c00054da260081fb07003e02be002e03be0055
:1017d00059fc070047042400c687280045cc2b008d
:1017e000945a290079fb0700809fbe00829fbe00ab
:1017f0003e00be002e01be00a7fe2b00a6d72c0087
:10180000159b2d00d47b28004bfc070007022c0001
:10181000f6d32f00d5c8250034a626006bfb0700a1
:101820003e02be002e03be0043fc070047032c000f
:10183000f6172800259e2b00b4cc2b0063fb070075
:101840003e02be002e03be003bfc0700b7022c0088
:10185000660a26006510250024ce21005bfb0700e8
:101860003e02be002e03be0033fc07004f03be0045
:101870004f02be00d2fb07000802be000a03be00f2
:101880002dfc07000802be000a03be004ffb070044
:101890000c00e0000f0032000c10a70003f0a200c3
:1018a00084d1220045442500b61f220097ff230063
:1018b0006260e1000600320064362700d582230012
:1018c00026152c0007fe23000c10a70007ff23009d
:1018d0003efb07000df0a70003f0a2003cfe37001e
:1018e0000330a00014022000c4cb880038fe37006b
:1018f00093ff2300b21f22004144250080d1220023
:10190000f4ff370081002000618055000b003d008e
:101910000b00200061fe2f000100e1001d003400db
:1019200082817100610164008904d1000884d300c0
:101930000000e800faff3a00710020006100640036
:1019400003007000020060000900320061044400de
:10195000e0844c000988a500050032008b05e800f2
:101960006808e10002003a008904d1000884d3002d
:10197000f20f20000258e10005003d00c75ddd00c8
:10198000f907b200898075000800780000000600a1
:101990000bf827008b007800000005000004be0053
:1019a000160007000003be000405be000200be00d2
:1019b00012000700844f7500000006000200be0000
:1019c0006450e100050036006420e10002003600aa
:1019d0000968a30001003a000800be000160a000f1
:1019e0004f0678004f05be004f04be000000060001
:1019f000f0ff2f00f1ff2700f9ff3700c70ade00d4
:101a0000f107b200f50fb20008003200e1cf42004a
:101a1000020032000170a00024000500810f700058
:101a2000010032000408050044000500810f700029
:101a300002003a00140005008502e90000004000a1
:101a400081c04800fcff3b000170a000240005009d
:101a5000889fbe008a9fbe008c9fbe000404be000b
:101a60000605be00809fbe00829fbe00ddfe07000f
:101a7000040678000800be000a01be00d9fe070077
:101a8000840678004f03be004f02be008d4f7600e3
:101a90007fb0970013003300f0ff2f008b8f6b0097
:101aa00006003b000d0666000c00a7000a00370088
:101ab00007f0a600100020000a003700880f52002f
:101ac000898f5a008a0f5b008b8f5b0003003900ff
:101ad0001000200001003e000000200007f0a700d9
:101ae0000000ea004f06be004f05be004f04be00d6
:101af00000000600e48240001078a30007003200d6
:101b0000640240001178a3003400be001401be003e
:101b1000040032000330a700000006003500be00bc
:101b20001501be000330a00000000600801feb007e
:101b3000330007008f87e900000006001400fa0058
:101b4000889fbe008a9fbe008c9fbe000004be001e
:101b50000205be00680047000a90be000890be0063
:101b600079fe07000070a7000bf0a10030432000b1
:101b70009e02900080825200b0fe2f000028e100fb
:101b800011003d00b0fc2f000028e10015003400da
:101b90001e0990008e0890007e0090000501b000a4
:101ba0000201d1008180d3000080d3008502e800cb
:101bb000fbff3a000b00e00085fd3b0060001000d9
:101bc000e080180082fd3700f0ff2f00f1ff2700b2
:101bd0000b00e0007efd3b0001002800000020001b
:101be0007bfd37006000b80079fd3700809feb0077
:101bf00097ff07008f87e9000000e0000000060063
:101c00002800fa00889fbe008a9fbe008c9fbe00fd
:101c10000efe97005afd07006108e1005c003200eb
:101c20006200e1005a003e00540039006408e100ff
:101c3000520032006c014700748557003200be002c
:101c40001201be003a04be001a05be009e029000ba
:101c5000be0e90000d82520017003b000402e80007
:101c600046003a00880f5000898f58008a0f5900ab
:101c70008b8f59004100340064014700780347000e
:101c80003200be001201be003602be001603be00c6
:101c900007f0a10003f0a60007f0a0000c70a70059
:101ca0004afa07004afd37000000400081804800e2
:101cb00002014900838149000c00a0000800500087
:101cc000898058000a0159008b81590005003b00aa
:101cd00008004000898048000a0149008b814900c2
:101ce0000c00a1000402e900efff3b0000024000ed
:101cf0008182480002034900838349001b003200af
:101d00000802520089825a000a035b008b835b0041
:101d10004200f800050037000000400081804800c4
:101d200002014900838149008d06e9000340a600b5
:101d3000f9ff37006022b8000d03780029fd070085
:101d4000780347004200f9000800350002003c001b
:101d50000c08a300050032003602be001603be00c8
:101d600007f0a0000c70a70018fa07005e029000b0
:101d700004f0a70003f0a20015fd37002e0090002c
:101d8000be0090004e019000de01900010fd370073
:101d9000100220000c70a600c0cb880009fd37009f
:101da00010417800814f5100040032000000e8002b
:101db0000204e000faff3a000000eb000000060019
:101dc000889fbe008a9fbe008000780000c2b300da
:101dd00001003700890078008104780039447800d8
:101de000804f5400fbff3200e94f5400f9ff3200ee
:101df000d0c2b300804f540004003a001944780068
:101e00008184e8001ac0b300060037000045eb00eb
:101e1000b0c2b300804f540002003a001944780069
:101e20008184e8006022b8000a003700a200200088
:101e3000030020000400be00dbf907000b41440052
:101e40000281fb0003002000000241008182490062
:101e5000394478000880fb000bfd2f000b00400088
:101e6000e90f5000f1ff36000a04e00002003200e2
:101e700060021200e0821a000400be004f05be009e
:101e80004f04be00000006000001780000c2b3004d
:101e9000010037000201e8009240780080cf500036
:101ea000fcff3200e9cf5000faff3200d0c2b3008d
:101eb00080cf500003003a000201e80014c0b300d4
:101ec000050037000042eb00b0c2b30080cf5000e5
:101ed00001003a000201e8008000eb0005fd2f0040
:101ee000040037006a08b900008041008500400006
:101ef0000201e8009201fb0005804100e90f50005b
:101f0000f8ff36000404e000010032008100ea001e
:101f100001007800000006008001780000017800d0
:101f200031407800005978000004e000fcff3a00de
:101f300003007800000006000400fa00e0bf9f00e4
:101f4000e4815700812978000002eb000f00370080
:101f50006fb89700904078007fb8970010407800e5
:101f60000402e80080cf5000040032008180fb00b2
:101f70000080fb0000805000070037006fb897001a
:101f80000000e800e0bf9f009309e800820f5200c4
:101f9000efff3a000000eb000080fa0000000600ae
:101fa000800078003004e000feff3a00010050009d
:081fb0000000e900000006003a
:020000040000fa
:020000040001f9
:0457f8008e7b0000a4
:020000040000fa
:020000040001f9
:0457fc007f1f00000b
:020000040000fa
:10000800b4020000b4020000b4020000b402000010
:10001800b4020000b4020000b4020000b402000000
:10002800b4020000b4020000b4020000e63d000083
:10003800b4020000b4020000b4020000b4020000e0
:100048006e3e0000b4020000b4020000b4020000da
:10005800b4020000b4020000b4020000b4020000c0
:10006800b4020000b4020000b4020000b4020000b0
:10007800b4020000b4020000b4020000b4020000a0
:10008800b4020000b4020000b4020000b402000090
:10009800b4020000b4020000ea3e0000b40200000e
:1000a800b4020000b4020000b4020000b402000070
:1000b800b4020000b4020000b4020000b402000060
:1000c800b4020000b4020000b4020000b402000050
:1000d800b4020000b4020000b4020000b402000040
:1000e800b4020000b4020000b4020000b402000030
:1000f800b4020000b4020000b4020000b402000020
:10010800b4020000b4020000b4020000b40200000f
:10011800b4020000b4020000b4020000b4020000ff
:10012800b4020000b4020000b4020000b4020000ef
:10013800b4020000b4020000b4020000b4020000df
:10014800b4020000b4020000b4020000b4020000cf
:10015800b4020000b4020000b4020000b4020000bf
:10016800b4020000b4020000b4020000b4020000af
:10017800b4020000b4020000b4020000b40200009f
:10018800b4020000b4020000b4020000b40200008f
:10019800b4020000b4020000b4020000b40200007f
:1001a800b4020000b4020000b4020000b40200006f
:1001b800b4020000b4020000b4020000b40200005f
:1001c800b4020000b4020000b4020000b40200004f
:1001d800b4020000b4020000b4020000b40200003f
:1001e800b4020000b4020000b4020000b40200002f
:0801f800b4020000b402000093
:020000040000fa
:10020800b4020000b4020000b4020000b40200000e
:10021800b4020000b4020000b4020000b4020000fe
:10022800b4020000b4020000b4020000e63d000081
:10023800b4020000b4020000b4020000b4020000de
:100248006e3e0000b4020000b4020000b4020000d8
:10025800b4020000b4020000b4020000b4020000be
:10026800b4020000b4020000b4020000b4020000ae
:10027800b4020000b4020000b4020000b40200009e
:10028800b4020000b4020000b4020000b40200008e
:10029800b4020000b4020000ea3e0000b40200000c
:1002a800b4020000b4020000b4020000b40200006e
:1002b800b4020000b4020000b4020000b40200005e
:1002c800b4020000b4020000b4020000b40200004e
:1002d800b4020000b4020000b4020000b40200003e
:1002e800b4020000b4020000b4020000b40200002e
:1002f800b4020000b4020000b4020000b40200001e
:10030800b4020000b4020000b4020000b40200000d
:10031800b4020000b4020000b4020000b4020000fd
:10032800b4020000b4020000b4020000b4020000ed
:10033800b4020000b4020000b4020000b4020000dd
:10034800b4020000b4020000b4020000b4020000cd
:10035800b4020000b4020000b4020000b4020000bd
:10036800b4020000b4020000b4020000b4020000ad
:10037800b4020000b4020000b4020000b40200009d
:10038800b4020000b4020000b4020000b40200008d
:10039800b4020000b4020000b4020000b40200007d
:1003a800b4020000b4020000b4020000b40200006d
:1003b800b4020000b4020000b4020000b40200005d
:1003c800b4020000b4020000b4020000b40200004d
:1003d800b4020000b4020000b4020000b40200003d
:1003e800b4020000b4020000b4020000b40200002d
:0803f800b4020000b402000091
:020000040000fa
:101fb80000950000000000000000000001f900008a
:101fc8000000000000000000088700000400000076
:101fd8000000000009af0000000000000100000040
:101fe8000a1b000000000000010000000cc30000f4
:101ff80001000000000000000daf0000020000001a
:102008000000000010ff00000000000000000000b9
:1020180011ff0000000000000100000012ff000096
:10202800000000000100000018ff00000000000090
:102038000100000019ff000000000000010000007e
:1020480020ff0000000000000000000021ff000049
:10205800000000000000000026df00000100000072
:1020680000000000377300000000000000000000be
:102078003a25000004000000000000003b25000095
:10208800000000000000000029ff0000040000001c
:102098000000000017ff0000000000000000000022
:1020a800720000006d3300002e7400007874000088
:1020b800003100002e770000617600000032000039
:1020c8002e77000061760000003300002e770000b4
:1020d80061760000003400002e7700006176000071
:1020e800003500002e770000617600000036000001
:1020f8002e77000061760000003700002e77000080
:1021080061760000003800002e770000617600003c
:10211800003900002e77000061760000006f000093
:10212800737400002e7700006176000000470000fd
:10213800505200004d430000004700005047000087
:10214800474100000047000050470000534100008d
:042158000000000083
:020000040000fa
:10215c000400fa000000eb00000f780006003700c6
:10216c009e007800007521008080400010c0b300f4
:10217c00804878001e0fe800100020009e0f100011
:10218c00f7ff34000040eb0074f9b7000040eb009f
:10219c006af9b7000080eb008080eb0030cb880040
:1021ac0041cb88000080eb008080eb0070cb880076
:1021bc0081cb8800c419070000802100f7010700bb
:1021cc000004e00005003a000040eb0056f7b700b1
:1021dc001000200010079800020037000000eb00f0
:1021ec00100798001e0090000080fa000000060006
:1021fc001400fa00881f7800600798007107980097
:10220c0002579800135798006e00900040109000f1
:10221c0050079800b0002000200798006e00900036
:10222c0080189000701090006e01900010199800aa
:10223c00211998007e009000601190000200780037
:10224c000080ea008180ea00300798005e00900070
:10225c000000e00009003a00ea00470012c0b30099
:10226c006e009000a60607000000e0000f003a0088
:10227c00b0012000200798000c0037005e00900091
:10228c006f0060000000e00008003200ea00470028
:10229c0012c0b3006e009000990607000000e00029
:1022ac0002003a00b0012000200798002e00900098
:1022bc00fb0f5000b60032002e0090000000e00032
:1022cc00b3003200ea0047006e0090005808070087
:1022dc00104798001e409000e24f5000ac003200b6
:1022ec001e4090000004e000a0003a006e00900038
:1022fc00e010900041079800ce009000f003200001
:10230c0000806000400798001e5090000080fb0089
:10231c00100f98001e0890000000e000040032002e
:10232c009e089000e18f5000280032009400370086
:10233c004e009000e80f5000910032000000eb00be
:10234c0020079800d0c6b300304798000040eb003f
:10235c00004f7800190037001e80fb00ee00900043
:10236c007c0040000100400010407800304798008d
:10237c001e80fb00fe0090007c004000010040002d
:10238c0010407800204798003e4090000080fb00f1
:10239c0074f80700000478002e4090000080fb00c9
:1023ac0070f80700800f540003003200b0002000ca
:1023bc0020079800720037001e4fe800a0c0b30041
:1023cc009e4f1000e4ff36006d0037004e00900069
:1023dc00be009000010060000000e00068003a00c0
:1023ec004e009000ef0f5000650032000000eb0033
:1023fc0020079800d0c6b300304798007e009000ac
:10240c00c0589000a0c2b30080cf5000270032000b
:10241c000040eb00004f7800210037001e80fb00cd
:10242c00ee0090007c00400001004000104078005d
:10243c00304798001e80fb00fe0090007c0040009e
:10244c00010040001040780020479800ae409000fa
:10245c00a0c2b30080cf500014003200ae409000f8
:10246c00f0c3b30080cf50000c0032003e4090000f
:10247c000080fb003bf80700000478002e40900021
:10248c000080fb0037f80700800f54000300320077
:10249c00b000200020079800040037001e4fe80011
:1024ac0071c0b3009ecf1000dcff36007e009000a0
:1024bc00c0609000a0c2b30080cf5000300032004a
:1024cc002e0090000000e0002d003a0080c0b30008
:1024dc00004f7800210037001e80fb00ee009000ba
:1024ec007c0040000100400010407800304798000c
:1024fc001e80fb00fe0090007c00400001004000ac
:10250c001040780020479800ae409000a0c2b30065
:10251c0080cf50001a003200ae409000f0c3b300e0
:10252c0080cf50000c0032003e4090000080fb0039
:10253c000cf80700000478002e4090000080fb008f
:10254c0008f80700800f540003003200b000200090
:10255c00200798000a0037001e4fe800a0c0b30007
:10256c009e4f1000dcff3600050037000e50900027
:10257c000004e00002003a000000eb002007980085
:10258c005e0090000000e800500798004aff3700fa
:10259c002e0090004f0478000080fa000000060026
:1025ac001000fa005007980061079800624f9800dd
:1025bc000000eb00000f78005e00900090007800a7
:1025cc00410798004e009000306090000004e0003d
:1025dc0003003a0070002000000f780072003700f2
:1025ec005e00900080189000701090005e019000ca
:1025fc0010199800211998006e00900010007800b6
:10260c000000e00009003a0012c0b300ee00900098
:10261c005e009000ba0507000000e00010003a00d0
:10262c00b0012000000f78000d0037006e00900004
:10263c00100078006f0060000000e000080032001d
:10264c0012c0b300ee0090005e009000ac050700d5
:10265c000000e00002003a00b0012000000f7800fa
:10266c00ee0090005e009000710707006047980034
:10267c006e4090000004e00003003200b000200027
:10268c00000f7800480037005e0190006000b80031
:10269c0070019800010998005e009000a000900065
:1026ac00100090005e0190003001980041019800ec
:1026bc00de0090000000eb00d0009800de009000df
:1026cc000000eb00e00098006e409000e14f5000dd
:1026dc0003003a00b0002000000f780024003700ff
:1026ec005e00900030019000c00190004e00900000
:1026fc006509070010079800210798005e009000fc
:10270c0060cb880072cb800083cb80001e009000d1
:10271c00ae009000800f5100818f590014003200e0
:10272c000040eb0074f9b7004e0090009080fb0065
:10273c00104090000080fb004800dd00010070009c
:10274c00000178001e009000ae00900014190700e4
:10275c000004e00002003a0080002000000f780026
:10276c001e009000ae00900070cb880081cb8800da
:10277c005e019000b2089000b0ff2f000080600056
:10278c00300998005e019000b2089000e0ff2f0025
:10279c000080600030099800de0090003108900045
:1027ac000010a000b00898001e0078000080fa000d
:1027bc00000006001c00fa00200f9800320f980051
:1027cc00430f98000040eb00204798002e08900023
:1027dc00100f78001e007800206090000080fb0035
:1027ec00500f98005e089000e10f50000d00320071
:1027fc005e099000e30f5100010032001200370017
:10280c0080ff2f00f1ff200020079800310798006f
:10281c00f0ff2f00f1ff20004007980051079800af
:10282c001100370080ff20000100200020079800d5
:10283c0031079800f0ff2f0001002000400798009e
:10284c00510798000800370080ff2f00010020007e
:10285c002007980031079800f0ff2f00010020009e
:10286c0040079800510798002e0890003001900006
:10287c00c001900062079800730798006e019000e9
:10288c00fe0190001e007800280d0700000f980034
:10289c00110f98000e0990009e0990004e009000b8
:1028ac00de009000800f5100818f590003003a0028
:1028bc0080c0b30020479800210037009e007800ac
:1028cc00415090000082fb00515090000080fb00b2
:1028dc004800dd0004007000000178006150900099
:1028ec000082fb00715090000080fb004800dd006e
:1028fc00040070008001780062014100e081490011
:10290c000e0890009e089000800f5100818f590096
:10291c0002003e00a0c0b300204798000e099000b2
:10292c009e0990002e009000be009000800f510078
:10293c00818f590002003900c0c3b30020479800b2
:10294c002e0890000e0990009e099000320098000d
:10295c00430098003e089000ce08900061005000a3
:10296c00e0805800300f9800410f98003e0890000e
:10297c00ce089000e00f5000e08f580003003200aa
:10298c002e4090000004e000b7ff32002e40900073
:10299c000080fb000080fa00000006000800fa002e
:1029ac00200798000040eb0020479800ae009000f4
:1029bc000040eb00b0609800ae009000422e210069
:1029cc00f00f20000000610091417800e0c8610028
:1029dc00914870004811de0011409000604060008a
:1029ec000240700090409800831b0700000f780095
:1029fc001e007800104078000004e0000500320052
:102a0c0060c0b3002047980060c0b30056f7b70011
:102a1c003c0037001e007800900078000010200069
:102a2c00008060000000e000270032001e007800eb
:102a3c00100090006101b800ae009000f00f200073
:102a4c00000261000158900060406000044070007a
:102a5c00805898004812de001158900060406000c9
:102a6c000440700090589800f00f20000082610024
:102a7c00215890006040600004407000a0589800fd
:102a8c004819de0031589000604060000240700030
:102a9c00b05898001e007800900090000020200094
:102aac00808f50000800360010c2b30020479800f9
:102abc0010c2b30056f7b7002e4090000080fb0008
:102acc0030079800120037002e009000130007000a
:102adc00204798002e4090000004e00009003a00c6
:102aec002e00900052010700204798002e409000c5
:102afc000004e00003003a00ae00900010c0b300e8
:102b0c00b06098002e4090000080fb0030079800c9
:102b1c003e0090000080fa00000006001200fa004f
:102b2c00500798000040eb00704798005e00900042
:102b3c009080fb00104090000080fb004800dd00fe
:102b4c0001007000000178006000b8001418070044
:102b5c00e14f50000500320080c0b3007047980070
:102b6c0080c0b30056f7b7002b0137005e00900011
:102b7c009080fb00104090000080fb004800dd00be
:102b8c0001007000200798002e009000e0f89300e0
:102b9c0050c5b30080cf5000a3003a002e00900027
:102bac00f0f89300a0cab30080cf50009e003a000a
:102bbc005e0090009080fb00104090000080fb00b5
:102bcc004800dd000100700061032000f1070700e0
:102bdc008040780060c4b30080cf500043003a00be
:102bec005e0090009080fb00104090000080fb0085
:102bfc004800dd000100700071032000e5070700ac
:102c0c008040780010c4b30080cf500037003a00e9
:102c1c005e0090009080fb00104090000080fb0054
:102c2c004800dd000100700081032000d907070077
:102c3c008040780040c5b30080cf50002b003a0094
:102c4c005e0090009080fb00104090000080fb0024
:102c5c004800dd000100700091032000cd07070043
:102c6c008040780010c3b30080cf50001f003a00a2
:102c7c005e0090009080fb00104090000080fb00f4
:102c8c004800dd000100700061022000c107070050
:102c9c008040780090c2b30080cf500013003a00ff
:102cac005e009000a0409000e0c0600021409800c1
:102cbc00b0409000e0c0600031409800c0409000ef
:102ccc00e0c0600041409800d0409000e0c060003f
:102cdc0051409800de00900020c0b300a060980026
:102cec000000eb0070079800ce0037005e009000eb
:102cfc009080fb00104090000080fb004800dd003d
:102d0c000100700021052000a20707008040780018
:102d1c0060c4b30080cf500043003a005e009000c6
:102d2c009080fb00104090000080fb004800dd000c
:102d3c0001007000310520009607070080407800e4
:102d4c0010c4b30080cf500037003a005e009000f2
:102d5c009080fb00104090000080fb004800dd00dc
:102d6c0001007000410520008a07070080407800b0
:102d7c0040c5b30080cf50002b003a005e0090009d
:102d8c009080fb00104090000080fb004800dd00ac
:102d9c0001007000510520007e070700804078007c
:102dac0030c3b30080cf50001f003a005e0090008b
:102dbc009080fb00104090000080fb004800dd007c
:102dcc000100700021042000720707008040780089
:102ddc0090c2b30080cf500013003a005e00900008
:102dec00a0409000e0c0600021409800b0409000ee
:102dfc00e0c0600031409800c0409000e0c060002e
:102e0c0041409800d0409000e0c0600051409800d4
:102e1c00de00900030c0b300a06098008000eb0092
:102e2c00710798007f0037005e0090009080fb00d7
:102e3c00104090000080fb004800dd000100700095
:102e4c00400798004e009000e0f8930050c5b30086
:102e5c0080cf500005003a004e009000f0f893002f
:102e6c00a0cab30080cf50000500320040c0b300b0
:102e7c0056f7b70040c0b3007047980066003700a3
:102e8c004e009000e11b2000010f40000040eb00c1
:102e9c0020479800590037009e00780001489000a8
:102eac000082fb00114890000080fb004800dd0010
:102ebc000400700000017800214890000082fb00a3
:102ecc00314890000080fb004800dd0004007000d9
:102edc0080017800de009000f00f200000026100fd
:102eec00214090006040600004407000a0409800b9
:102efc004812de00314090006040600004407000d9
:102f0c00b0409800f00f200000826100414090001a
:102f1c006040600004407000c04098004819de001a
:102f2c00514090006040600002407000d04098001a
:102f3c001e007800c0409000614798006e409000e1
:102f4c000080fb00600798006e009000ee0f5000b0
:102f5c0025003e0010002000ee0090000100dd0076
:102f6c00000f9800000524008e089000008060007f
:102f7c000000e0000e003a00008021008e08900056
:102f8c00008060000000e00010003a008e08900005
:102f9c00628060000000e00001003a00120037007f
:102fac00de00900010c0b300a06098000e00370047
:102fbc005e00900021c0b300216098007e4090001c
:102fcc000080fb0070079800160037005e00900030
:102fdc0031c0b300216098007e4090000080fb005f
:102fec00700798000f0037001e007800700f40002b
:102ffc002e4090000040e800204798002e409000a2
:10300c00e34f5000a4ff360050c0b30056f7b70092
:10301c0050c0b300704798007e4090000080fb00c9
:10302c00700798007e0090000080fa0000000600f7
:10303c001c00fa00889fbe008a9fbe00400f9800bb
:10304c000040eb00204f98000000eb0010079800a8
:10305c000000eb00000f78004e0890009080fb0001
:10306c00104090000080fb004800dd000100700063
:10307c0080017800ce089000214090000081fb0078
:10308c00314090000080fb004800dd000200700021
:10309c0000027800414090000081fb0051409000fc
:1030ac000080fb004800dd00020070008002780008
:1030bc00030178000400be00b9160700e14f500070
:1030cc000300320080c0b300204f9800eb023700a1
:1030dc004e0890009080fb00104090000080fb0098
:1030ec004800dd0001007000400798000000370028
:1030fc004e009000e0f8930050c5b30080cf500014
:10310c0005003a004e009000f0f89300a0cab300fe
:10311c0080cf50000300320030c0b300204f980025
:10312c00210237004e0890009080fb001040900068
:10313c000080fb004800dd0001007000e100200071
:10314c009d060700200798004e0890009080fb0019
:10315c00104090000080fb004800dd000100700072
:10316c00d10020008b060700804078004e089000ac
:10317c0011609800ce089000214090000082fb0066
:10318c00314090000080fb004800dd00040070001e
:10319c0000017800414090000082fb0051409000fb
:1031ac000080fb004800dd00040070008001780006
:1031bc002e00900001002000020140008381480095
:1031cc00ce089000f00f20000002610061409000da
:1031dc006040600004407000e04098004812de003f
:1031ec00714090006040600004407000f040980016
:1031fc00f00f2000008261000148900060406000e8
:10320c0004407000804898004819de001148900076
:10321c006040600002407000904898004e0890009a
:10322c009080fb00104090000080fb004800dd0007
:10323c000100700001012000560607008040780054
:10324c004e089000016098004e0890009080fb00a2
:10325c00104090000080fb004800dd000100700071
:10326c0061012000540607006101b800ce089000ef
:10327c00f00f200000026100415890006040600097
:10328c0004407000c05898004812de00515890005d
:10329c006040600004407000d0589800f00f20008f
:1032ac000082610061589000604060000440700032
:1032bc00e05898004819de0071589000604060009a
:1032cc0002407000f0589800ce08900041589000d1
:1032dc000082fb00515890000080fb004800dd008c
:1032ec000400700000017800615890000082fb001f
:1032fc00715890000080fb004800dd000400700055
:10330c0080017800e00f5100e08f590020003a0056
:10331c004e0890009080fb00104090000080fb0055
:10332c004800dd0001007000410220003c0607004f
:10333c000001be00ce089000f00f200000026100da
:10334c00415890006040600004407000c0589800e4
:10335c004812de005158900060406000044070003c
:10336c00d0589800f00f2000008261006158900046
:10337c006040600004407000e05898004819de007e
:10338c00715890006040600002407000f058980046
:10339c00ce089000614090000081fb0071409000cd
:1033ac000080fb004800dd00020070000005780082
:1033bc00014890000081fb00114890000080fb0048
:1033cc004800dd0002007000800578004e08900077
:1033dc00006090000084fb0009002000ce089000e3
:1033ec00415890000081fb00515890000080fb0078
:1033fc004800dd0002007000000378006158900066
:10340c000081fb00715890000080fb004800dd003b
:10341c0002007000800378008800780006007800b5
:10342c00000ab80007c0b90005017800000141008e
:10343c0009b0b90000014100820278000a01420083
:10344c008b814a00ce089000f00f20000002610032
:10345c00214890006040600004407000a048980033
:10346c004812de003148900060406000044070005b
:10347c00b0489800f00f2000008261004148900095
:10348c006040600004407000c04898004819de009d
:10349c00514890006040600002407000d048980095
:1034ac004e0890009080fb00104090000080fb00c4
:1034bc004800dd000100700011012000be0507006e
:1034cc0080017800ce089000f00f20000081610090
:1034dc00215090006040600002407000a0509800a5
:1034ec004819de00315090006040600002407000ce
:1034fc00b05098004e0890009080fb001040900057
:10350c000080fb004800dd0001007000310120004c
:10351c00a905070001002000000f9800110f98006a
:10352c000e0890009e089000e00f5000e08f5800ad
:10353c000a003a004e0890009080fb00104090006a
:10354c000080fb004800dd0001007000010220003b
:10355c00b3050700000f9800110f98004e0890005b
:10356c009080fb00104090000080fb004800dd00c4
:10357c0001007000b10020008f0507003007980093
:10358c003e0090000000e000040032003e0090007d
:10359c00610060000004e0000300320010c2b300c0
:1035ac00204f980000013700ce0890002150900069
:1035bc000081fb00315090000080fb004800dd00d2
:1035cc0002007000c500dd003e009000008040004d
:1035dc000000e9003e019000110009000280d800b3
:1035ec0001002000200f9800310f98002e00900051
:1035fc006105b8004e089000006090000084fb004c
:10360c0009002000ce089000415890000081fb007a
:10361c00515890000080fb004800dd000200700053
:10362c0000037800615890000081fb0071589000f5
:10363c000080fb004800dd00020070008003780071
:10364c008800780006007800000ab80007c0b900ae
:10365c00050178000001410009b0b90000014100ea
:10366c00820278000a0142008b814a002e089000e9
:10367c00be08900002014000838148000e089000b3
:10368c009e0890000200500083805800600798004c
:10369c00710798004e089000106090000081fb00ac
:1036ac00030020006e009000fe0090006af60700f8
:1036bc000001be00ce089000f00f20000002610057
:1036cc00415090006040600004407000c050980071
:1036dc004812de00515090006040600004407000c1
:1036ec00d0509800f00f20000082610061509000d3
:1036fc006040600004407000e05098004819de0003
:10370c00715090006040600002407000f0509800d2
:10371c00ce089000415090000082fb005150900068
:10372c000080fb004800dd00040070000001780000
:10373c00615090000082fb00715090000080fb00f3
:10374c004800dd00040070008001780040ff20007c
:10375c0001002000800f5100818f590004003e00b1
:10376c00ce08900010c0b300a06098001b0037007a
:10377c00ce089000415090000082fb005150900008
:10378c000080fb004800dd000400700000017800a0
:10379c00615090000082fb00715090000080fb0093
:1037ac004800dd00040070008001780040ff2f000d
:1037bc0001002000800f5100818f590004003e0051
:1037cc00ce08900020c0b300a06098000300370022
:1037dc00ce08900030c0b300a06098004e08900056
:1037ec0020609000e34f500035003a004e089000e6
:1037fc009080fb00104090000080fb004800dd0032
:10380c0001007000c10220000505070090ba880075
:10381c00a1ba8800ce089000214890000082fb00dd
:10382c00314890000080fb004800dd00040070006f
:10383c0000017800414890000082fb005148900044
:10384c000080fb004800dd0004007000800178005f
:10385c002e089000be0890000201400083814800b1
:10386c00ce089000f00f200000026100614890002b
:10387c006040600004407000e04898004812de0090
:10388c00714890006040600004407000f04898005f
:10389c00f00f200000826100015090006040600039
:1038ac0004407000805098004819de0011509000c0
:1038bc006040600002407000905098003400370067
:1038cc006000b80090ba8800a1ba8800ce089000b9
:1038dc00214890000082fb00314890000080fb00e2
:1038ec004800dd00040070000001780041489000a1
:1038fc000082fb00514890000080fb004800dd0076
:10390c000400700080017800ce08900021509000d7
:10391c000082fb00315090000080fb004800dd006d
:10392c00040070004400de00010020000201400091
:10393c0083814800ce089000f00f20000002610047
:10394c00614890006040600004407000e0489800be
:10395c004812de0071489000604060000440700026
:10396c00f0489800f00f2000008261000150900098
:10397c006040600004407000805098004819de00e0
:10398c001150900060406000024070009050980010
:10399c00be00900000202000808f500002003600f6
:1039ac0010c2b300204f98004e0890002060900089
:1039bc00e34f50000d0032002e4890000004e00050
:1039cc00ae0032004e009000a0c0900090c2b30038
:1039dc0080cf5000050032004e009000a0c0900037
:1039ec0080c2b30080cf5000a4003a00ce009000fb
:1039fc00315090000081fb00415090000080fb0092
:103a0c004800dd00020070000000e0003a003a00bf
:103a1c004e009000407090000004e00036003a0028
:103a2c004e009000507090000004e00032003a000c
:103a3c004e009000607090000004e0002e003a00f0
:103a4c004e009000707090000004e0002a003a00d4
:103a5c004e009000007890000004e00026003a0030
:103a6c004e009000107890000004e00022003a0014
:103a7c004e009000207890000004e0001e003a00f8
:103a8c004e009000307890000004e0001a003a00dc
:103a9c004e009000407890000004e00016003a00c0
:103aac004e009000507890000004e00012003a00a4
:103abc004e009000607890000004e0000e003a0088
:103acc004e009000707890000004e0000a003a006c
:103adc004e009000a0c0900090c2b30080cf500068
:103aec00070032004e009000a0c0900080c2b300ce
:103afc0080cf50000200320030c0b300204f98003d
:103b0c002e4890000004e000310032001e009000ae
:103b1c000000e0002e003a00100020001007980072
:103b2c004e0890009080fb00104090000080fb003d
:103b3c004800dd000100700080027800ce08900083
:103b4c00214090000082fb00314090000080fb007f
:103b5c004800dd0004007000000178004140900036
:103b6c000082fb00514090000080fb004800dd000b
:103b7c000400700080017800ce009000217090004d
:103b8c000082fb00317090000080fb004800dd00db
:103b9c0004007000010020000200400083804800f7
:103bac0005017800fe130700e14f500005003200bc
:103bbc0080c0b30056f7b70080002000500f98006b
:103bcc00360037000040eb00204f980048fd3700ce
:103bdc002e4890000004e000280032001e00e00097
:103bec0026003a0010002000000f78004e089000cc
:103bfc009080fb00104090000080fb004800dd002e
:103c0c000100700080027800ce08900021409000e6
:103c1c000082fb00314090000080fb004800dd007a
:103c2c000400700000017800414090000082fb000d
:103c3c00514090000080fb004800dd000400700043
:103c4c008001780066004100e080490005017800a1
:103c5c00d3130700e14f50000500320080c0b300c1
:103c6c0056f7b70080002000500f98000b0037006b
:103c7c000040eb00204f98001dfd37002e489000af
:103c8c000004e000020032002e48900056f7b70006
:103c9c002e4890000080fb00500f98005e089000aa
:103cac004f05be004f04be000080fa000000060065
:103cbc000600fa00200798006000b800008fbe00d4
:103ccc002e0090002008900001002000008fbe0004
:103cdc001e00be00c000dd0000002000008fbe00f2
:103cec002e00900050089000010020001e1f700054
:103cfc001e9770001e00be000080fa000000060037
:103d0c001e00fa00400f9800510f9800425f980077
:103d1c004e08900090007800210f98004e089000fb
:103d2c00701190008019900062079800730798003a
:103d3c004e08900010199000a019900022079800ce
:103d4c0033079800ae089000015890000082fb00e9
:103d5c00115890000080fb004800dd00040070004a
:103d6c0000017800215890000082fb00315890002f
:103d7c000080fb004800dd0004007000800178002a
:103d8c004b1add004510de0000007200c518de0085
:103d9c00004f78005e089000100078001e81fb0038
:103dac00110009000280d800204798002e089000ce
:103dbc00206090000080fb00e30f500001003200f7
:103dcc000e0037002e089000906090002e4090005e
:103ddc000080fb000181fb00110009000280d8006b
:103dec008000fd002047980080ff2f00f1ff20008d
:103dfc004007980051079800120037006e009000a1
:103e0c00fe009000e00f5000e08f580009003200d7
:103e1c002e089000906090002e4090000080fb00d7
:103e2c000181fb00110009000280d8008000fd0018
:103e3c002047980080ff2f000100200040079800c9
:103e4c00510798004e5890000004e00005003a001d
:103e5c005e089000100078006f0060000000e00029
:103e6c00b3003a002e4090000004e00005003a0038
:103e7c005e089000900078001e80fb00808f500040
:103e8c00030031004e5890000004e0002e00320078
:103e9c006e009000fe009000e00f5000e08f580084
:103eac0004003a006000b800200798003107980021
:103ebc00250037004e5890000004e0000c00320042
:103ecc005e089000900178009e80fb002e08900008
:103edc00106090000080fb000088b90000017800a1
:103eec00110009008281d800104798001300370098
:103efc0010c0b30010479800100037002e0190003e
:103f0c00be0190002e08900088070700200798003b
:103f1c00310798002e019000be0190004e009000d9
:103f2c00de009000800f5100818f59000600310097
:103f3c001e4090000040e900104798001e40900081
:103f4c000004e000edff3a002e019000be0190004d
:103f5c004e009000de009000800f5100818f5900c0
:103f6c006e0031004e0890002e019000be019000b2
:103f7c0012189800231898002e019000be01900092
:103f8c002e08900040030700000f9800110f9800b6
:103f9c0092ba8000a3ba80002e009000be00900060
:103fac00820f5000838f580020003a002e40900062
:103fbc000081fb00030020000e0890009e0890007a
:103fcc000203400083834800ae08900061489000d3
:103fdc000082fb00714890000080fb004800dd006f
:103fec000400700000017800015090000082fb007a
:103ffc00115090000080fb004800dd0004007000b0
:10400c0080017800820f5300838f5b00070039001a
:10401c002e08900020609000e34f50000300320007
:10402c000000eb00300f9800540037000000eb004c
:10403c0060cb88000040eb0074f9b7002e089000ac
:10404c009080fb00104090000080fb004800dd00d9
:10405c0001007000000278002e4090000081fb00ef
:10406c00030020000e0890009e0890000200400003
:10407c008380480004017800c9120700e14f50000a
:10408c00030032000000eb00300f98001e003700d8
:10409c004e5890000004e000140032002e089000ee
:1040ac009080fb00104090000080fb004800dd0079
:1040bc0001007000800078005e089000100078000d
:1040cc001e81fb00811f7800110009000280d800be
:1040dc000001780001007800cf0078004500dd0079
:1040ec0000804000300f9800070037002e08900029
:1040fc009080fb00104090000080fb004800dd0029
:10410c0001007000300f98000080eb008080eb0005
:10411c0070cb880081cb88001800370010c0b3002a
:10412c0073f9b7000000eb00300f98001300370054
:10413c002e0890009080fb00104090000080fb0047
:10414c004800dd0001007000800078005e089000df
:10415c00100078001e81fb00811f780011000900ff
:10416c000280d8000001780001007800cf007800b0
:10417c004500dd0000804000300f98003e089000a4
:10418c000080fa00000006000800fa0030079800d2
:10419c0080042000000f78000040eb0056f7b700b9
:1041ac003e009000c0109000210798003e01900046
:1041bc00b2089000d0ff2f000080600030099800fa
:1041cc000000eb0010079800120037009e009000d2
:1041dc00600320000088b90080007800406e210048
:1041ec00808040003e009000808f500006003a0016
:1041fc009e009000007521008080400010c0b3002c
:10420c0080487800060037001e0090000000e8008f
:10421c00100798001e009000e10f5000ebff3600d5
:10422c000000eb0030079800800420009e0f100067
:10423c0002003a000000eb00000f78001e0078002e
:10424c000080fa00000006000800fa003007980011
:10425c003e009000300890007f406000504798006e
:10426c003e009000b0089000007e200000806000ae
:10427c004500de00404798003e009000b0089000da
:10428c0000802f00008060004b00de00304798005b
:10429c003e009000400890007f406000204798004e
:1042ac003e009000c0089000001e200000806000be
:1042bc004500de00104798003e009000c0089000ba
:1042cc0000e02f00008060004900de00004f780005
:1042dc005e409000fc4f500004003e005e40900099
:1042ec000040e80050479800280037000040eb00e1
:1042fc0050479800ce409000a0c3b30080cf500030
:10430c0004003e004e4090000040e80040479800fa
:10431c001e0037000040eb00404798003e409000e4
:10432c00f64f500004003e003e4090000040e80074
:10433c0030479800150037000040eb0030479800dc
:10434c002e409000fd4f500004003e002e40900087
:10435c000040e800204798000c00370010c0b30064
:10436c00204798001e409000eb4f500004003e0088
:10437c001e4090000040e8001047980003003700f2
:10438c0010c0b300104798001e4fe8005e4090002c
:10439c008080fb003e009000310898003e009000a9
:1043ac00b00890004e4090000080fb004500dd00fe
:1043bc00808070003e009000310898003e00900014
:1043cc00b00890003e4090000080fb004b00dd00e8
:1043dc00808070003e009000310898002e409000c4
:1043ec008080fb003e009000410898003e00900049
:1043fc00c00890001e4090000080fb004500dd00ce
:10440c00808070003e009000410898003e009000b3
:10441c00c00890001e80fb004900dd008080700009
:10442c003e009000410898000080fa000000060051
:10443c000c00fa0040079800510798000040eb0070
:10444c00004f78005e009000100078006f00600054
:10445c000000e00010003a005e00900010007800b0
:10446c000000e0000c0032004e009000801890001c
:10447c00701090004e0190001019980021199800ae
:10448c0012c0b300de0090004e0090001cfe07002e
:10449c0030079800050037000041eb00de0090006b
:1044ac004e00900016fe0700300798003e0090006a
:1044bc000000e00003003a0020c0b3001047980051
:1044cc00850037003e00900010407800304798007f
:1044dc003e409000fb4f400003003a0010c0b30078
:1044ec00104798007c0037003e4090000004e0002c
:1044fc0003003a0020c0b300104798007600370044
:10450c003e009000b0489000314798000040eb000e
:10451c0040479800140037004e4090008080fb000c
:10452c003e0090000080400010407800204798002a
:10453c002e4090000080fb0011f0070020479800ef
:10454c001e80fb002e419000ce0090007c004000ad
:10455c0001004000024878001e4fe8004e409000d9
:10456c000040e800404798004e409000e74f500054
:10457c00e9ff36003e009000b048900031479800ab
:10458c003e00900000489000204798000040eb004f
:10459c0040479800150037004e4090000080fb000b
:1045ac00be00900068004000010040001040780000
:1045bc00204798002e4090000080fb00f0ef070091
:1045cc00204798001e80fb002e419000ce009000ea
:1045dc007c00400001004000024878001e4fe800bb
:1045ec004e4090000040e800404798004e4090003c
:1045fc00e24f5000e8ff36005e009000900078001b
:10460c004e009000411098003e0090001040780041
:10461c00304798003e409000fb4f400003003a00aa
:10462c0010c0b30010479800020037000040eb00a8
:10463c00104798003e009000f00890006008900031
:10464c004e01900010099800210998003e0090003e
:10465c0097fd07004e019000100198002101980071
:10466c003e009000b0489000314798003e409000ca
:10467c008080fb004e009000611098003e4090003e
:10468c000080fb004400de00610060000004e000dc
:10469c00090032003e009000f00090004e009000a7
:1046ac00410898003e009000800890004e00900059
:1046bc0051089800080037003e009000b0089000a8
:1046cc004e009000410898003e009000c0089000f9
:1046dc004e009000510898001e4090000080fb0096
:1046ec000080fa00000006000a00fa00200798007b
:1046fc00310798002e0090008018900070109000e8
:10470c002e019000101998002119980012c0b300c6
:10471c00be0090002e00900079fd07001007980055
:10472c001e0090000000e00003003a000000eb00c7
:10473c00400798002c0037001e00900010407800b5
:10474c00004f78001e04e00002003a000000eb006d
:10475c00100798001e0090000000e00020003200be
:10476c0051ceb3009ecf100003003a000000eb00c6
:10477c00100798001a0037001e009000b0489000f7
:10478c00014f7800130037003e00900010007800b5
:10479c008000e8003e009000010878000041eb002a
:1047ac00be0090002e00900055fd070010079800e9
:1047bc001e0090000000e00003003a000000eb0037
:1047cc0040079800080037001e009000b048900089
:1047dc00014f7800f0c0b3009e4f1000eaff32008a
:1047ec009e009000410798004e0090000080fa0057
:1047fc00000006001200fa005007980061079800ac
:10480c006e0090001040780020479800801307003d
:10481c000004e0000d003200ae40900020c7b30051
:10482c0080cf500009003200ae40900020c5b3008c
:10483c0080cf50000500320080c1b30056f7b7009e
:10484c000000eb00000f98008f0037000000eb0019
:10485c00300798000000eb00200798001600370086
:10486c00ae009000007521000080400010407800e0
:10487c000004e0000d003200ae0090000075210035
:10488c00808040000040eb0080487800ae00900033
:10489c00600320000088b90080007800406e210081
:1048ac000080400030079800060037002e00900072
:1048bc000000e800200798002e009000e10f500047
:1048cc00e7ff34003e0090000000e00005003a00d5
:1048dc0000c2b30056f7b7008000eb00010f980040
:1048ec00690037000041eb00be0090005e009000b4
:1048fc00740207000004e0000a003a00ae009000c9
:10490c00007521008080400010c0b3008048780002
:10491c0020c1b30056f7b7000000eb00000f980061
:10492c0059003700be0090000080210080087800fc
:10493c003e0190006000b800100198002101980021
:10494c003e0190006000b8003001980041019800d1
:10495c00be0090000000eb00c0109800be0090005c
:10496c0000022000e010980090ba8000a1ba8000ec
:10497c003e019000701198000119980090ba8000c7
:10498c00a1ba80003e0190001019980021199800de
:10499c00be00900040792100620007008041eb00ce
:1049ac0012c0b300417921003e00900010f60700c0
:1049bc000000e0001a003a002e4090000080fb003e
:1049cc007007980020052000fe009000808f50009a
:1049dc000500320020072000fe009000808f500060
:1049ec0001003200090037003e009000401090009a
:1049fc0040079800e800470022c7b3003e00900033
:104a0c00e7f60700000f780009003700f0c1b3008b
:104a1c0056f7b700f00f2000000f780004003700a5
:104a2c00b0002000000f7800b0c0b30056f7b700fc
:104a3c00f71207000004e000050032003e01900070
:104a4c00b2089000e0ff2f00008060003009980051
:104a5c001e00e00008003200ae009000007521003e
:104a6c008080400010c0b300804878000000eb004c
:104a7c0030079800020037000040eb0056f7b700f3
:104a8c003e009000000f98000e0890000080fa0085
:104a9c00000006000200fa00000f78000040eb0056
:104aac0056f7b7001e007800800890007000900048
:104abc000080fa00000006000200fa00000f7800e7
:104acc001e0178006000b800700198000109980080
:104adc009e0078000000eb00e00098009e0078003b
:104aec000000eb00d00098001e007800a0009000a1
:104afc00100090001e0178003001980041019800d0
:104b0c000000eb0060cb88000080fa00000006007b
:104b1c000000fa0056d7bf000080fb000080fa00ae
:104b2c00000006000c00fa0040079800510798009e
:104b3c004e009000200798005e009000100798002f
:104b4c0060032000300798000000eb00000f780095
:104b5c000b0037001e007800800078002e009000bb
:104b6c00008140001e007800800078001e0090003c
:104b7c000080400010407800004978001e0fe800cb
:104b8c003e0090009e0f1000f2ff35000080fa00ee
:104b9c00000006000400fa00000f780011079800ce
:104bac001e0090001e004000104078000080fb00aa
:104bbc000080fa00000006000800fa0020079800a8
:104bcc0031079800be0090002e009000008040003d
:104bdc009040780031479800be0090002e00900065
:104bec00008040000000e8009040780021479800c9
:104bfc002e4090000080fb00000f78001e00780013
:104c0c004800dd00000f78003e4090000080fb0063
:104c1c001e0f70001e0078000080fa0000000600d5
:104c2c000c00fa004007980051079800de00900035
:104c3c004e009000e0ff0700300798005e009000e7
:104c4c008080e8004e009000dbff070020079800f2
:104c5c002e00900001002000008fbe001e00be0040
:104c6c00c000dd0000002000008fbe003e00900060
:104c7c00010020001e1f70001e9770001e00be0059
:104c8c000080fa00000006000a00fa00889fbe00af
:104c9c002007980032079800430798002e009000d8
:104cac00206090000080fb00e30f500001003200f8
:104cbc00230037003e009000ce00900062035000ad
:104ccc00e08358002e009000106090000082fb00e2
:104cdc00050020008600780004007800000cb80065
:104cec0005b0b900090178000001410007a0b90026
:104cfc000001410082047800ae00900061489000f1
:104d0c000082fb00714890000080fb004800dd0031
:104d1c000400700000017800015090000082fb003c
:104d2c00115090000080fb004800dd000400700072
:104d3c0080017800021f440003974c0042003700aa
:104d4c003e009000ce009000e00f5000e08f580025
:104d5c00070032003e019000ce01900010002000b0
:104d6c0001002000800f5100818f590014003a007f
:104d7c00ae009000214890000082fb00314890006a
:104d8c000080fb004800dd0004007000000178008a
:104d9c00414890000082fb00514890000080fb00cd
:104dac004800dd0004007000800178003e00900097
:104dbc00ce009000001f41000197490022003700ef
:104dcc003e009000ce00900062035000e08358003b
:104ddc002e009000106090000082fb000500200067
:104dec008600780004007800000cb80005b0b9000b
:104dfc00090178000001410007a0b9000001410041
:104e0c0082047800ae009000614890000082fb00a4
:104e1c00714890000080fb004800dd000400700029
:104e2c0000017800015090000082fb0011509000ae
:104e3c000080fb004800dd00040070008001780059
:104e4c00021f440003974c001e00be004f04be001e
:104e5c000080fa00000006000400fa00000f780041
:104e6c000040eb0056f7b7001e0078007001900070
:104e7c00800990001e007800a00890001008900097
:104e8c000002eb0014079800800f5100818f59002d
:104e9c0002003a0010002000100798001e0090003d
:104eac000080fa00000006002000fa00300f980085
:104ebc00410f9800520f9800630f9800ce08900095
:104ecc005e0890000088b90001002000100f9800c7
:104edc00210f98003e089000000f98000000eb0096
:104eec00100798000000eb00000f78000040eb006a
:104efc0056f7b7006e089000900078007107980084
:104f0c006e08900060019000220798006e089000d7
:104f1c007001900080099000520798006307980078
:104f2c006e08900030089000620060000000e00005
:104f3c0005003a00e0c1b30056f7b7008001eb0062
:104f4c00730f9800dc00370061cb80006e08900076
:104f5c00808f5000c60032002e0090006103b80014
:104f6c00fe009000015890000082fb001158900048
:104f7c000080fb004800dd00040070000001780098
:104f8c00215890000082fb00315890000080fb00fb
:104f9c004800dd000400700080017800820f53008f
:104fac00838f5b00b20032006e08900060cb8800eb
:104fbc006e08900030019000c00190007e009000bf
:104fcc0031ff070030079800410798006e089000e9
:104fdc00500090006101b8003e009000ce0090009f
:104fec00000041008180490030079800410798007b
:104ffc000040eb0074f9b7007e0090009080fb003d
:10500c00104090000080fb004800dd0001007000a3
:10501c00000178003e009000ce009000e00e0700ea
:10502c000004e00007003a0080c0b30056f7b70058
:10503c0080002000100798008000eb00710f980092
:10504c009d0037003e019000ce01900072cb88008d
:10505c0083cb8800860037006e0890001009900002
:10506c00a00990005e009000ee009000800f5100af
:10507c00818f590005003a00d0c3b30056f7b70032
:10508c00d0032000100798007e0037002e009000ff
:10509c006103b800fe009000015890000082fb00f4
:1050ac00115890000080fb004800dd0004007000e7
:1050bc0000017800215890000082fb0031589000cc
:1050cc000080fb004800dd000400700080017800c7
:1050dc00820f5300838f5b0046003a000000eb0008
:1050ec00200798006e089000500090008000e800a7
:1050fc006e089000510098006e089000d00090004f
:10510c007e009000106090000080fb00808f5000ab
:10511c000f003a00ee0890000000eb00d000980061
:10512c0012002000030020006e089000a1f507007b
:10513c000080fb00100798001e0090000000e000ab
:10514c0003003200f0c0b30056f7b7004d00370033
:10515c006e08900030019000c00190007e0090001d
:10516c00c9fe070030079800410798006e089000b0
:10517c00500090006101b8003e009000ce009000fd
:10518c0000004100818049003007980041079800d9
:10519c00ee09900063cb88000040eb0074f9b70077
:1051ac007e0090009080fb00104090000080fb007f
:1051bc004800dd0001007000000178003e00900006
:1051cc00ce009000760e07000004e00005003a00c7
:1051dc0080c0b30056f7b70080002000100798007d
:1051ec00280037003e009000ce00900070cb880065
:1051fc0081cb88007e0090009080fb0010409000d6
:10520c000080fb004800dd00010070008000780089
:10521c002e00900000804000904078000e08900016
:10522c00014878002e0090000000e800200798004c
:10523c000e0890000000e800000f98005e0090003f
:10524c00ee00900061004000e0804800500798009c
:10525c00610798001e0fe8001e089000ae08900031
:10526c0061005000e0805800100f9800210f98004a
:10527c001e089000ae089000e00f5000e08f580020
:10528c0075ff3a006e089000ae0090006100980027
:10529c006e0890005e019000ee0190007200980084
:1052ac00030898001e0078004e09900011000900b8
:1052bc000280d800700f98007e0890000080fa00e1
:1052cc00000006003400fa0060179800711798006f
:1052dc00027798000000eb00100798000000eb002c
:1052ec00000f7800c0002000500798006e1090004e
:1052fc0028f3070030c18800de00900030c1800028
:10530c00808f5000090039006e109000904078009a
:10531c00e0c2b30080cf5000040032006e10900049
:10532c00104078000004e00003003a000000eb009d
:10533c00101f9800e80037007200470020c1880059
:10534c000000eb00500798000c00370021c18000d2
:10535c005e009000008140005e00900080007800ac
:10536c006e109000008040001040780000497800da
:10537c005e0090000000e80050079800de009000ee
:10538c0030c18000808f5000f0ff39000e7090000b
:10539c00d4000700700798007e009000e70f5000c3
:1053ac0003003a000000eb00101f9800ca00370001
:1053bc0030c18000600798007e009000e60f50001e
:1053cc00ba0032001e0090000000e000b7003a0066
:1053dc000000eb00300798001c00370021c1800052
:1053ec003e0090000080400090407800e0c2b30086
:1053fc0080cf500005003a006e009000be00900077
:10540c0001005000e40f500003003c003e009000ef
:10541c00e80f5000030034000000eb00101f980050
:10542c00ad00370021c180003e009000008040009c
:10543c0090407800e0c2b30080cf500007003200eb
:10544c003e0090000000e80030079800be0090007d
:10545c006e009000808f5000e0ff35001e00900021
:10546c000000e00091003a007e1090007c004000ab
:10547c00000f98000000eb0050079800090037005f
:10548c005e009000800078000e0890008080400044
:10549c0000c2b300804878005e0090000000e80075
:1054ac00500798005e009000ea0f5000f4ff3400a3
:1054bc003e0090002007980020c18000000f78006b
:1054cc000000eb00500798000000eb00400798002c
:1054dc002f0037005e0090001e0040001040780046
:1054ec000004e000270032004e009000800078009d
:1054fc000e089000808040005e0090001e0040006e
:10550c0010407800804878004e00900080007800b1
:10551c000e089000008040009040780000c6b30058
:10552c0080cf5000140034004e00900080007800b2
:10553c000e0890000080400090407800a0c7b30097
:10554c0080cf50000c003c004e0090008000780092
:10555c000e089000008140004e0090008000780002
:10556c000e089000008040009040780000ceb30000
:10557c0000c04000004978004e0090000000e80098
:10558c00400798005e0090000000e800500798006b
:10559c004e009000e70f500004003c00de0090002d
:1055ac002e009000808f5000caff3500ae00900096
:1055bc006e009000808f50003c003d002e0090004b
:1055cc000000e800200798008000200030079800b9
:1055dc002f0037002e0090001e0040001040780075
:1055ec000004e000270032003e00900080007800ac
:1055fc000e089000808040002e0090001e0040009d
:10560c0010407800804878003e00900080007800c0
:10561c000e089000008040009040780000c6b30057
:10562c0080cf5000140034003e00900080007800c1
:10563c000e0890000080400090407800a0c7b30096
:10564c0080cf50000c003c003e00900080007800a1
:10565c000e089000008140003e0090008000780011
:10566c000e089000008040009040780000ceb300ff
:10567c0000c04000004978003e0090000000e800a7
:10568c00300798002e0090000000e80020079800da
:10569c003e009000ea0f500004003c00ae00900069
:1056ac006e009000808f5000caff35007e00900085
:1056bc00e60f5000030032001e009000e10f500076
:1056cc0003003a000000eb00101f980002003700a6
:1056dc0010002000101f98001e1890000080fa0087
:1056ec00000006000a00fa00604798000040eb003a
:1056fc001047980030c18000ec0f500003003600ba
:10570c006000200020079800020037000000eb002a
:10571c00200798000000eb0010079800630037008a
:10572c0021c180001e0090000080400010407800d5
:10573c00004f7800f0c1b3009e4f100003003e00f4
:10574c0050c0b3009e4f100015003a0020c2b300a9
:10575c009e4f100012003200f0c2b3009e4f10009a
:10576c000f003200a0c3b3009e4f10000c0032009b
:10577c00c0c3b3009e4f100009003200e0c3b30059
:10578c009e4f100006003200c0c5b3009e4f1000a3
:10579c0003003200c0c7b3009e4f100003003a0054
:1057ac007000200040079800460037006e409000c3
:1057bc000004e00009003a00a0c2b3009e4f1000a4
:1057cc0003003200f0c3b3009e4f100003003a00f8
:1057dc0070002000400798003a0037002e0090001f
:1057ec00e60f50002e00320000c2b3009e4f100096
:1057fc0018003200b0c2b3009e4f100015003200ea
:10580c00c0c2b3009e4f100012003200b0c3b300f0
:10581c009e4f10000f003200d0c3b3009e4f1000fb
:10582c000c003200b0c5b3009e4f100009003200ce
:10583c00d0c5b3009e4f100006003200e0c2b3008a
:10584c009e4f100006003a001e409000e14f5000a1
:10585c0003003a0060002000200798001000370079
:10586c00e0c2b3009e4f100002003a0010c0b3001b
:10587c00104798002e009000e10f500008003200f5
:10588c0000c6b3009e4f100005003600a0c7b30041
:10589c009e4f100002003e001000200020079800d0
:1058ac001e0090000000e8001007980031c1800035
:1058bc001e009000810f500099ff39002e009000bf
:1058cc00400798004e0090000080fa00000006008f
:1058dc001c00fa00889fbe00000f9800120f980061
:1058ec00230f9800310f98001e089000ae0890000e
:1058fc00008fbe000e0890009000780031079800d1
:10590c003e099000520f9800de099000e18f510083
:10591c00040032005e089000e20f500009003200d3
:10592c000f0037000e089000700190008009900065
:10593c001e00be000200400083804800008fbe00a5
:10594c00070037000e08900010099000a009900085
:10595c001e00be000000510081805900008fbe0067
:10596c000e08900010019000a001900042079800d2
:10597c00530798000e0890004e019000de01900035
:10598c0032009800430098000e0890001009900017
:10599c00a009900042079800530798001e01be0012
:1059ac004e009000de009000800f5100818f590056
:1059bc0005003600f0c1b30056f7b7008081eb004c
:1059cc00430f9800d50037000e099000b2089000e4
:1059dc00b0ff2f0000806000300998001e00be0050
:1059ec000e09900070019800010998001e03be007a
:1059fc00be009000015890000082fb0011589000ee
:105a0c000080fb004800dd000400700000017800fd
:105a1c00215890000082fb00315890000080fb0060
:105a2c004800dd0004007000800178000600be0014
:105a3c0089ed070060079800710798001e04be00ee
:105a4c00be009000015890000081fb00115890009e
:105a5c000080fb004800dd000200700000027800ae
:105a6c00215890000081fb00315890000080fb0011
:105a7c004800dd000200700080027800840078008d
:105a8c006e009000000bb8007e00900000a0b900e2
